{
  "_format": "hh-sol-artifact-1",
  "contractName": "Bank",
  "sourceName": "contracts/Bank.sol",
  "abi": [
    {
      "inputs": [
        {
          "internalType": "address",
          "name": "token_",
          "type": "address"
        }
      ],
      "stateMutability": "nonpayable",
      "type": "constructor"
    },
    {
      "inputs": [
        {
          "internalType": "address",
          "name": "token",
          "type": "address"
        }
      ],
      "name": "SafeERC20FailedOperation",
      "type": "error"
    },
    {
      "inputs": [
        {
          "internalType": "uint256",
          "name": "amount",
          "type": "uint256"
        }
      ],
      "name": "approveBank",
      "outputs": [],
      "stateMutability": "nonpayable",
      "type": "function"
    },
    {
      "inputs": [],
      "name": "balanceOfAddress",
      "outputs": [
        {
          "internalType": "uint256",
          "name": "balance",
          "type": "uint256"
        }
      ],
      "stateMutability": "view",
      "type": "function"
    },
    {
      "inputs": [
        {
          "internalType": "address",
          "name": "",
          "type": "address"
        }
      ],
      "name": "balanceOfDeposit",
      "outputs": [
        {
          "internalType": "uint256",
          "name": "",
          "type": "uint256"
        }
      ],
      "stateMutability": "view",
      "type": "function"
    },
    {
      "inputs": [
        {
          "internalType": "uint256",
          "name": "amount",
          "type": "uint256"
        }
      ],
      "name": "depositToAddress",
      "outputs": [],
      "stateMutability": "nonpayable",
      "type": "function"
    },
    {
      "inputs": [],
      "name": "token",
      "outputs": [
        {
          "internalType": "address",
          "name": "",
          "type": "address"
        }
      ],
      "stateMutability": "view",
      "type": "function"
    },
    {
      "inputs": [
        {
          "internalType": "address",
          "name": "to",
          "type": "address"
        },
        {
          "internalType": "uint256",
          "name": "amount",
          "type": "uint256"
        }
      ],
      "name": "transferInBank",
      "outputs": [],
      "stateMutability": "nonpayable",
      "type": "function"
    },
    {
      "inputs": [
        {
          "internalType": "uint256",
          "name": "amount",
          "type": "uint256"
        }
      ],
      "name": "withdraw",
      "outputs": [],
      "stateMutability": "nonpayable",
      "type": "function"
    }
  ],
  "bytecode": "0x60a060405234801561001057600080fd5b50604051610eaa380380610eaa833981810160405281019061003291906100cf565b8073ffffffffffffffffffffffffffffffffffffffff1660808173ffffffffffffffffffffffffffffffffffffffff1681525050506100fc565b600080fd5b600073ffffffffffffffffffffffffffffffffffffffff82169050919050565b600061009c82610071565b9050919050565b6100ac81610091565b81146100b757600080fd5b50565b6000815190506100c9816100a3565b92915050565b6000602082840312156100e5576100e461006c565b5b60006100f3848285016100ba565b91505092915050565b608051610d7e61012c600039600081816101760152818161026c0152818161043d01526106730152610d7e6000f3fe608060405234801561001057600080fd5b506004361061007d5760003560e01c806341f5822d1161005b57806341f5822d146100d657806386e16695146100f457806388393ac914610124578063fc0c546a146101405761007d565b80630539e09a14610082578063110545051461009e5780632e1a7d4d146100ba575b600080fd5b61009c600480360381019061009791906107f1565b61015e565b005b6100b860048036038101906100b391906107f1565b610254565b005b6100d460048036038101906100cf91906107f1565b6103a1565b005b6100de6104bb565b6040516100eb919061082d565b60405180910390f35b61010e600480360381019061010991906108a6565b610514565b60405161011b919061082d565b60405180910390f35b61013e600480360381019061013991906108d3565b61052c565b005b610148610671565b6040516101559190610922565b60405180910390f35b670de0b6b3a764000081610172919061096c565b90507f000000000000000000000000000000000000000000000000000000000000000073ffffffffffffffffffffffffffffffffffffffff1663095ea7b330836040518363ffffffff1660e01b81526004016101cf9291906109ae565b6020604051808303816000875af11580156101ee573d6000803e3d6000fd5b505050506040513d601f19601f820116820180604052508101906102129190610a0f565b610251576040517f08c379a000000000000000000000000000000000000000000000000000000000815260040161024890610a99565b60405180910390fd5b50565b670de0b6b3a764000081610268919061096c565b90507f000000000000000000000000000000000000000000000000000000000000000073ffffffffffffffffffffffffffffffffffffffff166323b872dd3330846040518463ffffffff1660e01b81526004016102c793929190610ab9565b6020604051808303816000875af11580156102e6573d6000803e3d6000fd5b505050506040513d601f19601f8201168201806040525081019061030a9190610a0f565b610349576040517f08c379a000000000000000000000000000000000000000000000000000000000815260040161034090610b3c565b60405180910390fd5b806000803373ffffffffffffffffffffffffffffffffffffffff1673ffffffffffffffffffffffffffffffffffffffff16815260200190815260200160002060008282546103979190610b5c565b9250508190555050565b670de0b6b3a7640000816103b5919061096c565b90506000803373ffffffffffffffffffffffffffffffffffffffff1673ffffffffffffffffffffffffffffffffffffffff16815260200190815260200160002054811115610438576040517f08c379a000000000000000000000000000000000000000000000000000000000815260040161042f90610c02565b60405180910390fd5b6104637f00000000000000000000000000000000000000000000000000000000000000003383610695565b806000803373ffffffffffffffffffffffffffffffffffffffff1673ffffffffffffffffffffffffffffffffffffffff16815260200190815260200160002060008282546104b19190610c22565b9250508190555050565b6000670de0b6b3a76400006000803373ffffffffffffffffffffffffffffffffffffffff1673ffffffffffffffffffffffffffffffffffffffff1681526020019081526020016000205461050f9190610c85565b905090565b60006020528060005260406000206000915090505481565b670de0b6b3a764000081610540919061096c565b90506000803373ffffffffffffffffffffffffffffffffffffffff1673ffffffffffffffffffffffffffffffffffffffff168152602001908152602001600020548111156105c3576040517f08c379a00000000000000000000000000000000000000000000000000000000081526004016105ba90610d28565b60405180910390fd5b806000803373ffffffffffffffffffffffffffffffffffffffff1673ffffffffffffffffffffffffffffffffffffffff16815260200190815260200160002060008282546106119190610c22565b92505081905550806000808473ffffffffffffffffffffffffffffffffffffffff1673ffffffffffffffffffffffffffffffffffffffff16815260200190815260200160002060008282546106669190610b5c565b925050819055505050565b7f000000000000000000000000000000000000000000000000000000000000000081565b61070f838473ffffffffffffffffffffffffffffffffffffffff1663a9059cbb85856040516024016106c89291906109ae565b604051602081830303815290604052915060e01b6020820180517bffffffffffffffffffffffffffffffffffffffffffffffffffffffff8381831617835250505050610714565b505050565b600080602060008451602086016000885af180610737576040513d6000823e3d81fd5b3d92506000519150506000821461075257600181141561076e565b60008473ffffffffffffffffffffffffffffffffffffffff163b145b156107b057836040517f5274afe70000000000000000000000000000000000000000000000000000000081526004016107a79190610922565b60405180910390fd5b50505050565b600080fd5b6000819050919050565b6107ce816107bb565b81146107d957600080fd5b50565b6000813590506107eb816107c5565b92915050565b600060208284031215610807576108066107b6565b5b6000610815848285016107dc565b91505092915050565b610827816107bb565b82525050565b6000602082019050610842600083018461081e565b92915050565b600073ffffffffffffffffffffffffffffffffffffffff82169050919050565b600061087382610848565b9050919050565b61088381610868565b811461088e57600080fd5b50565b6000813590506108a08161087a565b92915050565b6000602082840312156108bc576108bb6107b6565b5b60006108ca84828501610891565b91505092915050565b600080604083850312156108ea576108e96107b6565b5b60006108f885828601610891565b9250506020610909858286016107dc565b9150509250929050565b61091c81610868565b82525050565b60006020820190506109376000830184610913565b92915050565b7f4e487b7100000000000000000000000000000000000000000000000000000000600052601160045260246000fd5b6000610977826107bb565b9150610982836107bb565b9250828202610990816107bb565b915082820484148315176109a7576109a661093d565b5b5092915050565b60006040820190506109c36000830185610913565b6109d0602083018461081e565b9392505050565b60008115159050919050565b6109ec816109d7565b81146109f757600080fd5b50565b600081519050610a09816109e3565b92915050565b600060208284031215610a2557610a246107b6565b5b6000610a33848285016109fa565b91505092915050565b600082825260208201905092915050565b7f417070726f76616c206661696c65640000000000000000000000000000000000600082015250565b6000610a83600f83610a3c565b9150610a8e82610a4d565b602082019050919050565b60006020820190508181036000830152610ab281610a76565b9050919050565b6000606082019050610ace6000830186610913565b610adb6020830185610913565b610ae8604083018461081e565b949350505050565b7f546865207472616e73666572206e6f7420737563636573732100000000000000600082015250565b6000610b26601983610a3c565b9150610b3182610af0565b602082019050919050565b60006020820190508181036000830152610b5581610b19565b9050919050565b6000610b67826107bb565b9150610b72836107bb565b9250828201905080821115610b8a57610b8961093d565b5b92915050565b7f74686520776974686472617720616d6f756e7420697320746f6f206c6172676560008201527f2100000000000000000000000000000000000000000000000000000000000000602082015250565b6000610bec602183610a3c565b9150610bf782610b90565b604082019050919050565b60006020820190508181036000830152610c1b81610bdf565b9050919050565b6000610c2d826107bb565b9150610c38836107bb565b9250828203905081811115610c5057610c4f61093d565b5b92915050565b7f4e487b7100000000000000000000000000000000000000000000000000000000600052601260045260246000fd5b6000610c90826107bb565b9150610c9b836107bb565b925082610cab57610caa610c56565b5b828204905092915050565b7f746865207472616e7366657220616d6f756e7420697320746f6f206c6172676560008201527f2100000000000000000000000000000000000000000000000000000000000000602082015250565b6000610d12602183610a3c565b9150610d1d82610cb6565b604082019050919050565b60006020820190508181036000830152610d4181610d05565b905091905056fea264697066735822122014f49a0e47b67e4413be07903f9739af01ab99eb3c8fefd82724160b153a391364736f6c634300081b0033",
  "linkReferences": {},
  "deployedLinkReferences": {}
}