{
  "_format": "hh-sol-artifact-1",
  "contractName": "Bank",
  "sourceName": "contracts/Bank.sol",
  "abi": [
    {
      "inputs": [
        {
          "internalType": "address",
          "name": "token_",
          "type": "address"
        }
      ],
      "stateMutability": "nonpayable",
      "type": "constructor"
    },
    {
      "inputs": [
        {
          "internalType": "address",
          "name": "token",
          "type": "address"
        }
      ],
      "name": "SafeERC20FailedOperation",
      "type": "error"
    },
    {
      "inputs": [
        {
          "internalType": "address",
          "name": "from",
          "type": "address"
        },
        {
          "internalType": "address",
          "name": "to",
          "type": "address"
        },
        {
          "internalType": "uint256",
          "name": "amount",
          "type": "uint256"
        }
      ],
      "name": "TransferFromFailed",
      "type": "error"
    },
    {
      "inputs": [],
      "name": "balanceOfAddress",
      "outputs": [
        {
          "internalType": "uint256",
          "name": "balance",
          "type": "uint256"
        }
      ],
      "stateMutability": "view",
      "type": "function"
    },
    {
      "inputs": [
        {
          "internalType": "address",
          "name": "",
          "type": "address"
        }
      ],
      "name": "balanceOfDeposit",
      "outputs": [
        {
          "internalType": "uint256",
          "name": "",
          "type": "uint256"
        }
      ],
      "stateMutability": "view",
      "type": "function"
    },
    {
      "inputs": [
        {
          "internalType": "uint256",
          "name": "amount",
          "type": "uint256"
        }
      ],
      "name": "depositToAddress",
      "outputs": [],
      "stateMutability": "nonpayable",
      "type": "function"
    },
    {
      "inputs": [],
      "name": "token",
      "outputs": [
        {
          "internalType": "address",
          "name": "",
          "type": "address"
        }
      ],
      "stateMutability": "view",
      "type": "function"
    },
    {
      "inputs": [
        {
          "internalType": "address",
          "name": "to",
          "type": "address"
        },
        {
          "internalType": "uint256",
          "name": "amount",
          "type": "uint256"
        }
      ],
      "name": "transferInBank",
      "outputs": [],
      "stateMutability": "nonpayable",
      "type": "function"
    },
    {
      "inputs": [
        {
          "internalType": "uint256",
          "name": "amount",
          "type": "uint256"
        }
      ],
      "name": "withdraw",
      "outputs": [],
      "stateMutability": "nonpayable",
      "type": "function"
    }
  ],
  "bytecode": "0x60a060405234801561001057600080fd5b506040516110b43803806110b4833981810160405281019061003291906100cf565b8073ffffffffffffffffffffffffffffffffffffffff1660808173ffffffffffffffffffffffffffffffffffffffff1681525050506100fc565b600080fd5b600073ffffffffffffffffffffffffffffffffffffffff82169050919050565b600061009c82610071565b9050919050565b6100ac81610091565b81146100b757600080fd5b50565b6000815190506100c9816100a3565b92915050565b6000602082840312156100e5576100e461006c565b5b60006100f3848285016100ba565b91505092915050565b608051610f8f6101256000396000818161016a015281816103e401526106040152610f8f6000f3fe608060405234801561001057600080fd5b50600436106100625760003560e01c806311054505146100675780632e1a7d4d1461008357806341f5822d1461009f57806386e16695146100bd57806388393ac9146100ed578063fc0c546a14610109575b600080fd5b610081600480360381019061007c91906109ac565b610127565b005b61009d600480360381019061009891906109ac565b61035e565b005b6100a7610462565b6040516100b491906109e8565b60405180910390f35b6100d760048036038101906100d29190610a61565b6104bb565b6040516100e491906109e8565b60405180910390f35b61010760048036038101906101029190610a8e565b6104d3565b005b610111610602565b60405161011e9190610add565b60405180910390f35b6101666040518060400160405280601281526020017f6465706f736974656420616d6f756e743a20000000000000000000000000000081525082610626565b60007f000000000000000000000000000000000000000000000000000000000000000073ffffffffffffffffffffffffffffffffffffffff166323b872dd3330856040518463ffffffff1660e01b81526004016101c593929190610af8565b6020604051808303816000875af11580156101e4573d6000803e3d6000fd5b505050506040513d601f19601f820116820180604052508101906102089190610b67565b90506102496040518060400160405280601881526020017f6465706f7369746564206465706f73697465645375633a200000000000000000815250826106c2565b80610305576102c46040518060400160405280601281526020017f6465706f7369746564206661696c65643a200000000000000000000000000000815250336040518060400160405280600881526020017f616464726573733a0000000000000000000000000000000000000000000000008152503061075e565b3330836040517fca7f5f0e0000000000000000000000000000000000000000000000000000000081526004016102fc93929190610af8565b60405180910390fd5b816000803373ffffffffffffffffffffffffffffffffffffffff1673ffffffffffffffffffffffffffffffffffffffff16815260200190815260200160002060008282546103539190610bc3565b925050819055505050565b6000803373ffffffffffffffffffffffffffffffffffffffff1673ffffffffffffffffffffffffffffffffffffffff168152602001908152602001600020548111156103df576040517f08c379a00000000000000000000000000000000000000000000000000000000081526004016103d690610c7a565b60405180910390fd5b61040a7f00000000000000000000000000000000000000000000000000000000000000003383610800565b806000803373ffffffffffffffffffffffffffffffffffffffff1673ffffffffffffffffffffffffffffffffffffffff16815260200190815260200160002060008282546104589190610c9a565b9250508190555050565b6000670de0b6b3a76400006000803373ffffffffffffffffffffffffffffffffffffffff1673ffffffffffffffffffffffffffffffffffffffff168152602001908152602001600020546104b69190610cfd565b905090565b60006020528060005260406000206000915090505481565b6000803373ffffffffffffffffffffffffffffffffffffffff1673ffffffffffffffffffffffffffffffffffffffff16815260200190815260200160002054811115610554576040517f08c379a000000000000000000000000000000000000000000000000000000000815260040161054b90610da0565b60405180910390fd5b806000803373ffffffffffffffffffffffffffffffffffffffff1673ffffffffffffffffffffffffffffffffffffffff16815260200190815260200160002060008282546105a29190610c9a565b92505081905550806000808473ffffffffffffffffffffffffffffffffffffffff1673ffffffffffffffffffffffffffffffffffffffff16815260200190815260200160002060008282546105f79190610bc3565b925050819055505050565b7f000000000000000000000000000000000000000000000000000000000000000081565b6106be828260405160240161063c929190610e3f565b6040516020818303038152906040527fb60e72cc000000000000000000000000000000000000000000000000000000007bffffffffffffffffffffffffffffffffffffffffffffffffffffffff19166020820180517bffffffffffffffffffffffffffffffffffffffffffffffffffffffff838183161783525050505061087f565b5050565b61075a82826040516024016106d8929190610e7e565b6040516020818303038152906040527fc3b55635000000000000000000000000000000000000000000000000000000007bffffffffffffffffffffffffffffffffffffffffffffffffffffffff19166020820180517bffffffffffffffffffffffffffffffffffffffffffffffffffffffff838183161783525050505061087f565b5050565b6107fa848484846040516024016107789493929190610eae565b6040516020818303038152906040527faabc9a31000000000000000000000000000000000000000000000000000000007bffffffffffffffffffffffffffffffffffffffffffffffffffffffff19166020820180517bffffffffffffffffffffffffffffffffffffffffffffffffffffffff838183161783525050505061087f565b50505050565b61087a838473ffffffffffffffffffffffffffffffffffffffff1663a9059cbb8585604051602401610833929190610f01565b604051602081830303815290604052915060e01b6020820180517bffffffffffffffffffffffffffffffffffffffffffffffffffffffff8381831617835250505050610899565b505050565b6108968161088e61093b61095c565b63ffffffff16565b50565b600080602060008451602086016000885af1806108bc576040513d6000823e3d81fd5b3d9250600051915050600082146108d75760018114156108f3565b60008473ffffffffffffffffffffffffffffffffffffffff163b145b1561093557836040517f5274afe700000000000000000000000000000000000000000000000000000000815260040161092c9190610add565b60405180910390fd5b50505050565b60006a636f6e736f6c652e6c6f679050600080835160208501845afa505050565b610967819050919050565b61096f610f2a565b565b600080fd5b6000819050919050565b61098981610976565b811461099457600080fd5b50565b6000813590506109a681610980565b92915050565b6000602082840312156109c2576109c1610971565b5b60006109d084828501610997565b91505092915050565b6109e281610976565b82525050565b60006020820190506109fd60008301846109d9565b92915050565b600073ffffffffffffffffffffffffffffffffffffffff82169050919050565b6000610a2e82610a03565b9050919050565b610a3e81610a23565b8114610a4957600080fd5b50565b600081359050610a5b81610a35565b92915050565b600060208284031215610a7757610a76610971565b5b6000610a8584828501610a4c565b91505092915050565b60008060408385031215610aa557610aa4610971565b5b6000610ab385828601610a4c565b9250506020610ac485828601610997565b9150509250929050565b610ad781610a23565b82525050565b6000602082019050610af26000830184610ace565b92915050565b6000606082019050610b0d6000830186610ace565b610b1a6020830185610ace565b610b2760408301846109d9565b949350505050565b60008115159050919050565b610b4481610b2f565b8114610b4f57600080fd5b50565b600081519050610b6181610b3b565b92915050565b600060208284031215610b7d57610b7c610971565b5b6000610b8b84828501610b52565b91505092915050565b7f4e487b7100000000000000000000000000000000000000000000000000000000600052601160045260246000fd5b6000610bce82610976565b9150610bd983610976565b9250828201905080821115610bf157610bf0610b94565b5b92915050565b600082825260208201905092915050565b7f74686520776974686472617720616d6f756e7420697320746f6f206c6172676560008201527f2100000000000000000000000000000000000000000000000000000000000000602082015250565b6000610c64602183610bf7565b9150610c6f82610c08565b604082019050919050565b60006020820190508181036000830152610c9381610c57565b9050919050565b6000610ca582610976565b9150610cb083610976565b9250828203905081811115610cc857610cc7610b94565b5b92915050565b7f4e487b7100000000000000000000000000000000000000000000000000000000600052601260045260246000fd5b6000610d0882610976565b9150610d1383610976565b925082610d2357610d22610cce565b5b828204905092915050565b7f746865207472616e7366657220616d6f756e7420697320746f6f206c6172676560008201527f2100000000000000000000000000000000000000000000000000000000000000602082015250565b6000610d8a602183610bf7565b9150610d9582610d2e565b604082019050919050565b60006020820190508181036000830152610db981610d7d565b9050919050565b600081519050919050565b60005b83811015610de9578082015181840152602081019050610dce565b60008484015250505050565b6000601f19601f8301169050919050565b6000610e1182610dc0565b610e1b8185610bf7565b9350610e2b818560208601610dcb565b610e3481610df5565b840191505092915050565b60006040820190508181036000830152610e598185610e06565b9050610e6860208301846109d9565b9392505050565b610e7881610b2f565b82525050565b60006040820190508181036000830152610e988185610e06565b9050610ea76020830184610e6f565b9392505050565b60006080820190508181036000830152610ec88187610e06565b9050610ed76020830186610ace565b8181036040830152610ee98185610e06565b9050610ef86060830184610ace565b95945050505050565b6000604082019050610f166000830185610ace565b610f2360208301846109d9565b9392505050565b7f4e487b7100000000000000000000000000000000000000000000000000000000600052605160045260246000fdfea26469706673582212201b5e24982635272dce6b1f4328861c4aff63680e9dafb4806e240855f5121db664736f6c634300081b0033",
  "linkReferences": {},
  "deployedLinkReferences": {}
}