{
  "_format": "hh-sol-artifact-1",
  "contractName": "Bank",
  "sourceName": "contracts/Bank.sol",
  "abi": [
    {
      "inputs": [
        {
          "internalType": "address",
          "name": "token_",
          "type": "address"
        }
      ],
      "stateMutability": "nonpayable",
      "type": "constructor"
    },
    {
      "inputs": [
        {
          "internalType": "address",
          "name": "token",
          "type": "address"
        }
      ],
      "name": "SafeERC20FailedOperation",
      "type": "error"
    },
    {
      "inputs": [
        {
          "internalType": "uint256",
          "name": "amount",
          "type": "uint256"
        }
      ],
      "name": "approveBank",
      "outputs": [],
      "stateMutability": "nonpayable",
      "type": "function"
    },
    {
      "inputs": [],
      "name": "balanceOfAddress",
      "outputs": [
        {
          "internalType": "uint256",
          "name": "",
          "type": "uint256"
        }
      ],
      "stateMutability": "view",
      "type": "function"
    },
    {
      "inputs": [
        {
          "internalType": "address",
          "name": "",
          "type": "address"
        }
      ],
      "name": "balanceOfDeposit",
      "outputs": [
        {
          "internalType": "uint256",
          "name": "",
          "type": "uint256"
        }
      ],
      "stateMutability": "view",
      "type": "function"
    },
    {
      "inputs": [
        {
          "internalType": "uint256",
          "name": "amount",
          "type": "uint256"
        }
      ],
      "name": "depositToAddress",
      "outputs": [],
      "stateMutability": "nonpayable",
      "type": "function"
    },
    {
      "inputs": [],
      "name": "token",
      "outputs": [
        {
          "internalType": "address",
          "name": "",
          "type": "address"
        }
      ],
      "stateMutability": "view",
      "type": "function"
    },
    {
      "inputs": [
        {
          "internalType": "address",
          "name": "to",
          "type": "address"
        },
        {
          "internalType": "uint256",
          "name": "amount",
          "type": "uint256"
        }
      ],
      "name": "transferInBank",
      "outputs": [],
      "stateMutability": "nonpayable",
      "type": "function"
    },
    {
      "inputs": [
        {
          "internalType": "uint256",
          "name": "amount",
          "type": "uint256"
        }
      ],
      "name": "withdraw",
      "outputs": [],
      "stateMutability": "nonpayable",
      "type": "function"
    }
  ],
  "bytecode": "0x60a060405234801561001057600080fd5b50604051610e1c380380610e1c833981810160405281019061003291906100cf565b8073ffffffffffffffffffffffffffffffffffffffff1660808173ffffffffffffffffffffffffffffffffffffffff1681525050506100fc565b600080fd5b600073ffffffffffffffffffffffffffffffffffffffff82169050919050565b600061009c82610071565b9050919050565b6100ac81610091565b81146100b757600080fd5b50565b6000815190506100c9816100a3565b92915050565b6000602082840312156100e5576100e461006c565b5b60006100f3848285016100ba565b91505092915050565b608051610cf061012c600039600081816101760152818161026c01528181610451015261069d0152610cf06000f3fe608060405234801561001057600080fd5b506004361061007d5760003560e01c806341f5822d1161005b57806341f5822d146100d657806386e16695146100f457806388393ac914610124578063fc0c546a146101405761007d565b80630539e09a14610082578063110545051461009e5780632e1a7d4d146100ba575b600080fd5b61009c6004803603810190610097919061081b565b61015e565b005b6100b860048036038101906100b3919061081b565b610254565b005b6100d460048036038101906100cf919061081b565b6103a1565b005b6100de6104d0565b6040516100eb9190610857565b60405180910390f35b61010e600480360381019061010991906108d0565b610529565b60405161011b9190610857565b60405180910390f35b61013e600480360381019061013991906108fd565b610541565b005b61014861069b565b604051610155919061094c565b60405180910390f35b670de0b6b3a7640000816101729190610996565b90507f000000000000000000000000000000000000000000000000000000000000000073ffffffffffffffffffffffffffffffffffffffff1663095ea7b330836040518363ffffffff1660e01b81526004016101cf9291906109d8565b6020604051808303816000875af11580156101ee573d6000803e3d6000fd5b505050506040513d601f19601f820116820180604052508101906102129190610a39565b610251576040517f08c379a000000000000000000000000000000000000000000000000000000000815260040161024890610ac3565b60405180910390fd5b50565b670de0b6b3a7640000816102689190610996565b90507f000000000000000000000000000000000000000000000000000000000000000073ffffffffffffffffffffffffffffffffffffffff166323b872dd3330846040518463ffffffff1660e01b81526004016102c793929190610ae3565b6020604051808303816000875af11580156102e6573d6000803e3d6000fd5b505050506040513d601f19601f8201168201806040525081019061030a9190610a39565b610349576040517f08c379a000000000000000000000000000000000000000000000000000000000815260040161034090610b66565b60405180910390fd5b806000803373ffffffffffffffffffffffffffffffffffffffff1673ffffffffffffffffffffffffffffffffffffffff16815260200190815260200160002060008282546103979190610b86565b9250508190555050565b670de0b6b3a7640000816103b59190610996565b6000803373ffffffffffffffffffffffffffffffffffffffff1673ffffffffffffffffffffffffffffffffffffffff16815260200190815260200160002054811115610436576040517f08c379a000000000000000000000000000000000000000000000000000000000815260040161042d90610c06565b60405180910390fd5b670de0b6b3a76400008261044a9190610996565b91506104777f000000000000000000000000000000000000000000000000000000000000000033846106bf565b816000803373ffffffffffffffffffffffffffffffffffffffff1673ffffffffffffffffffffffffffffffffffffffff16815260200190815260200160002060008282546104c59190610c26565b925050819055505050565b6000670de0b6b3a76400006000803373ffffffffffffffffffffffffffffffffffffffff1673ffffffffffffffffffffffffffffffffffffffff168152602001908152602001600020546105249190610c89565b905090565b60006020528060005260406000206000915090505481565b670de0b6b3a7640000816105559190610996565b6000803373ffffffffffffffffffffffffffffffffffffffff1673ffffffffffffffffffffffffffffffffffffffff168152602001908152602001600020548111156105d6576040517f08c379a00000000000000000000000000000000000000000000000000000000081526004016105cd90610c06565b60405180910390fd5b670de0b6b3a7640000826105ea9190610996565b9150816000803373ffffffffffffffffffffffffffffffffffffffff1673ffffffffffffffffffffffffffffffffffffffff168152602001908152602001600020600082825461063a9190610c26565b92505081905550816000808573ffffffffffffffffffffffffffffffffffffffff1673ffffffffffffffffffffffffffffffffffffffff168152602001908152602001600020600082825461068f9190610b86565b92505081905550505050565b7f000000000000000000000000000000000000000000000000000000000000000081565b610739838473ffffffffffffffffffffffffffffffffffffffff1663a9059cbb85856040516024016106f29291906109d8565b604051602081830303815290604052915060e01b6020820180517bffffffffffffffffffffffffffffffffffffffffffffffffffffffff838183161783525050505061073e565b505050565b600080602060008451602086016000885af180610761576040513d6000823e3d81fd5b3d92506000519150506000821461077c576001811415610798565b60008473ffffffffffffffffffffffffffffffffffffffff163b145b156107da57836040517f5274afe70000000000000000000000000000000000000000000000000000000081526004016107d1919061094c565b60405180910390fd5b50505050565b600080fd5b6000819050919050565b6107f8816107e5565b811461080357600080fd5b50565b600081359050610815816107ef565b92915050565b600060208284031215610831576108306107e0565b5b600061083f84828501610806565b91505092915050565b610851816107e5565b82525050565b600060208201905061086c6000830184610848565b92915050565b600073ffffffffffffffffffffffffffffffffffffffff82169050919050565b600061089d82610872565b9050919050565b6108ad81610892565b81146108b857600080fd5b50565b6000813590506108ca816108a4565b92915050565b6000602082840312156108e6576108e56107e0565b5b60006108f4848285016108bb565b91505092915050565b60008060408385031215610914576109136107e0565b5b6000610922858286016108bb565b925050602061093385828601610806565b9150509250929050565b61094681610892565b82525050565b6000602082019050610961600083018461093d565b92915050565b7f4e487b7100000000000000000000000000000000000000000000000000000000600052601160045260246000fd5b60006109a1826107e5565b91506109ac836107e5565b92508282026109ba816107e5565b915082820484148315176109d1576109d0610967565b5b5092915050565b60006040820190506109ed600083018561093d565b6109fa6020830184610848565b9392505050565b60008115159050919050565b610a1681610a01565b8114610a2157600080fd5b50565b600081519050610a3381610a0d565b92915050565b600060208284031215610a4f57610a4e6107e0565b5b6000610a5d84828501610a24565b91505092915050565b600082825260208201905092915050565b7f417070726f76616c206661696c65640000000000000000000000000000000000600082015250565b6000610aad600f83610a66565b9150610ab882610a77565b602082019050919050565b60006020820190508181036000830152610adc81610aa0565b9050919050565b6000606082019050610af8600083018661093d565b610b05602083018561093d565b610b126040830184610848565b949350505050565b7f5472616e73666572206661696c65640000000000000000000000000000000000600082015250565b6000610b50600f83610a66565b9150610b5b82610b1a565b602082019050919050565b60006020820190508181036000830152610b7f81610b43565b9050919050565b6000610b91826107e5565b9150610b9c836107e5565b9250828201905080821115610bb457610bb3610967565b5b92915050565b7f496e73756666696369656e742062616c616e6365000000000000000000000000600082015250565b6000610bf0601483610a66565b9150610bfb82610bba565b602082019050919050565b60006020820190508181036000830152610c1f81610be3565b9050919050565b6000610c31826107e5565b9150610c3c836107e5565b9250828203905081811115610c5457610c53610967565b5b92915050565b7f4e487b7100000000000000000000000000000000000000000000000000000000600052601260045260246000fd5b6000610c94826107e5565b9150610c9f836107e5565b925082610caf57610cae610c5a565b5b82820490509291505056fea2646970667358221220aff60262c4e33600837ecabfe2d49c09deb2bdfe130364e0e2734d492651677264736f6c634300081b0033",
  "linkReferences": {},
  "deployedLinkReferences": {}
}